:100000000C9462000C948A000C948A000C948A0070
:100010000C948A000C948A000C948A000C948A0038
:100020000C948A000C948A000C948A000C948A0028
:100030000C948A000C948A000C948A000C948A0018
:100040000C9477020C948A000C9445020C941F02C5
:100050000C948A000C948A000C948A000C948A00F8
:100060000C948A000C948A000000000024002700F1
:100070002A000000000023002600290000000000E4
:10008000250028002B0004040404040404040202D4
:100090000202020203030303030301020408102007
:1000A0004080010204081020010204081020000012
:1000B0000008000201000003040700000000000027
:1000C0000000C40311241FBECFEFD8E0DEBFCDBFB8
:1000D00011E0A0E0B1E0E2EFF7E002C005900D9280
:1000E000A832B107D9F721E0A8E2B1E001C01D9222
:1000F000A03DB207E1F710E0C2E6D0E004C02197CE
:10010000FE010E94F103C136D107C9F70E94C10266
:100110000C94F7030C940000FC01538D448D252FA3
:1001200030E0842F90E0821B930B541710F0CF9691
:10013000089501970895FC01918D828D981761F0C3
:10014000A28DAE0FBF2FB11D5D968C91928D9F5FDA
:100150009F73928F90E008958FEF9FEF0895FC01B9
:10016000918D828D981731F0828DE80FF11D858D6C
:1001700090E008958FEF9FEF0895FC01918D228DFF
:10018000892F90E0805C9F4F821B91098F73992784
:100190000895FC01A48DA80FB92FB11DA35ABF4F1C
:1001A0002C91848D90E001968F739927848FA68976
:1001B000B7892C93A089B1898C91837080648C93CA
:1001C000938D848D981306C00288F389E02D808179
:1001D0008F7D80830895EF92FF920F931F93CF93AB
:1001E000DF93EC0181E0888F9B8D8C8D98131AC072
:1001F000E889F989808185FF15C09FB7F894EE8959
:10020000FF896083E889F9898081837080648083B5
:100210009FBF81E090E0DF91CF911F910F91FF9000
:10022000EF900895F62E0B8D10E00F5F1F4F0F73A8
:100230001127E02E8C8D8E110CC00FB607FCFACF63
:10024000E889F989808185FFF5CFCE010E94C90038
:10025000F1CFEB8DEC0FFD2FF11DE35AFF4FF08234
:100260009FB7F8940B8FEA89FB8980818062CFCF9A
:10027000CF93DF93EC01888D8823B9F0AA89BB89DD
:10028000E889F9898C9185FD03C0808186FD0DC0C8
:100290000FB607FCF7CF8C9185FFF2CF808185FFE9
:1002A000EDCFCE010E94C900E9CFDF91CF91089533
:1002B00083E391E00E94BD0021E0892B09F420E056
:1002C000822F089580E090E0892B29F00E94580148
:1002D00081110C9400000895AF92BF92CF92DF92EB
:1002E000EF92FF920F931F93CF93DF936C017B01EB
:1002F0008B01040F151FEB015E01AE18BF08C0177C
:10030000D10759F06991D601ED91FC910190F081EE
:10031000E02DC6010995892B79F7C501DF91CF91B1
:100320001F910F91FF90EF90DF90CF90BF90AF9013
:100330000895833081F028F4813099F08230A9F05B
:1003400008958730A9F08830C9F08430B1F48091E5
:1003500080008F7D03C0809180008F778093800024
:10036000089584B58F7784BD089584B58F7DFBCFC4
:100370008091B0008F778093B00008958091B00095
:100380008F7DF9CF1F93CF93DF93EBEBF0E0949148
:10039000E7EAF0E0D491E3E9F0E0C491CC23B9F0CE
:1003A000182F992319F0892F0E949901EC2FF0E062
:1003B000EE0FFF1FE458FF4FA591B4918FB7F8944B
:1003C000EC91111108C0D095DE23DC938FBFDF9133
:1003D000CF911F910895DE2BF8CF3FB7F89480910D
:1003E0002D0190912E01A0912F01B091300126B5E1
:1003F000A89B05C02F3F19F00196A11DB11D3FBF5D
:10040000BA2FA92F982F8827BC01CD01620F711D2B
:10041000811D911D42E0660F771F881F991F4A9525
:10042000D1F70895FC0101900020E9F73197AF0161
:10043000481B590BBC0183E391E00C946C011F92A3
:100440000F920FB60F9211242F933F934F935F9308
:100450006F937F938F939F93AF93BF93EF93FF938C
:1004600083E391E00E94C900FF91EF91BF91AF91AA
:100470009F918F917F916F915F914F913F912F91BC
:100480000F900FBE0F901F9018951F920F920FB6EE
:100490000F9211242F938F939F93EF93FF93E091EB
:1004A0004301F09144018081E0914901F0914A01BA
:1004B00082FD1BC0908180914C018F5F8F732091D2
:1004C0004D01821741F0E0914C01F0E0ED5CFE4FF0
:1004D000958F80934C01FF91EF919F918F912F9178
:1004E0000F900FBE0F901F9018958081F4CF1F9230
:1004F0000F920FB60F9211242F933F938F939F93D8
:10050000AF93BF938091290190912A01A0912B0173
:10051000B0912C013091280123E0230F2D3758F59D
:100520000196A11DB11D209328018093290190936C
:100530002A01A0932B01B0932C0180912D01909161
:100540002E01A0912F01B09130010196A11DB11D86
:1005500080932D0190932E01A0932F01B093300131
:10056000BF91AF919F918F913F912F910F900FBEAF
:100570000F901F90189526E8230F0296A11DB11D1C
:10058000D2CFCF93DF93CDB7DEB7A1970FB6F89454
:10059000DEBF0FBECDBF789484B5826084BD84B5C4
:1005A000816084BD85B5826085BD85B5816085BD6E
:1005B00080916E00816080936E0010928100809126
:1005C00081008260809381008091810081608093AE
:1005D0008100809180008160809380008091B100D3
:1005E00084608093B1008091B00081608093B000FE
:1005F00080917A00846080937A0080917A00826092
:1006000080937A0080917A00816080937A00809153
:100610007A00806880937A001092C100E7EAF0E0E7
:100620002491E3E9F0E08491882399F090E0880F29
:10063000991FFC01E859FF4FA591B491FC01E458C2
:10064000FF4F859194918FB7F894EC91E22BEC9346
:100650008FBF43EAE42E40E0F42EF70124915FE8D7
:10066000C52E50E0D52EF60184918823C9F090E084
:10067000880F991FFC01E859FF4FA591B491FC0127
:10068000E458FF4F459154913FB7F8949C91822FC5
:10069000809598239C93FA019081892380833FBFA2
:1006A00027EB222E20E0322E01E0F1018491F701A8
:1006B0001491F6017490772079F081110E949901CC
:1006C000E72DF0E0EE0FFF1FEE58FF4FA591B4911C
:1006D0008C91812311E009F410E011701093320124
:1006E0000E94ED014B015C0185E0482E512C612CEC
:1006F000712C0E94ED01681979098A099B09683EED
:10070000734081059105A8F3F1E04F1A5108610883
:10071000710828EE820E23E0921EA11CB11C411428
:1007200051046104710429F7112329F080913101EA
:10073000802780933101109232018091310188230A
:1007400009F181E00E94C20182E191E00E9412025F
:100750008091310119A2805D88A3CE0180960E940C
:10076000120285E291E00E94120280E090E0892B63
:1007700009F49BCF0E945801882309F496CF0E9468
:10078000000093CF80E0DECFE3E3F1E0138212823A
:1007900088EE93E0A0E0B0E084839583A683B783DE
:1007A00084E091E09183808385EC90E09587848755
:1007B00084EC90E09787868780EC90E0918B808B2B
:1007C00081EC90E0938B828B82EC90E0958B848B14
:1007D00086EC90E0978B868B118E128E138E148E82
:1007E0000895EE0FFF1F0590F491E02D0994F89401
:0207F000FFCF39
:1007F20000000000EB006C018C003801BD009B0082
:10080200AF005A6E616368656E6965206B6E6F70CA
:080812006B693A20000D0A0099
:107E0000112484B714BE81FFF0D085E080938100F7
:107E100082E08093C00088E18093C10086E0809377
:107E2000C20080E18093C4008EE0C9D0259A86E02C
:107E300020E33CEF91E0309385002093840096BBD3
:107E4000B09BFECF1D9AA8958150A9F7CC24DD24C4
:107E500088248394B5E0AB2EA1E19A2EF3E0BF2EE7
:107E6000A2D0813461F49FD0082FAFD0023811F036
:107E7000013811F484E001C083E08DD089C08234E0
:107E800011F484E103C0853419F485E0A6D080C0E4
:107E9000853579F488D0E82EFF2485D0082F10E0AE
:107EA000102F00270E291F29000F111F8ED06801E7
:107EB0006FC0863521F484E090D080E0DECF843638
:107EC00009F040C070D06FD0082F6DD080E0C81688
:107ED00080E7D80618F4F601B7BEE895C0E0D1E017
:107EE00062D089930C17E1F7F0E0CF16F0E7DF06D8
:107EF00018F0F601B7BEE89568D007B600FCFDCFD4
:107F0000A601A0E0B1E02C9130E011968C91119780
:107F100090E0982F8827822B932B1296FA010C0160
:107F200087BEE89511244E5F5F4FF1E0A038BF0790
:107F300051F7F601A7BEE89507B600FCFDCF97BE46
:107F4000E89526C08437B1F42ED02DD0F82E2BD052
:107F50003CD0F601EF2C8F010F5F1F4F84911BD097
:107F6000EA94F801C1F70894C11CD11CFA94CF0C13
:107F7000D11C0EC0853739F428D08EE10CD085E9AC
:107F80000AD08FE07ACF813511F488E018D01DD067
:107F900080E101D065CF982F8091C00085FFFCCF94
:107FA0009093C60008958091C00087FFFCCF809118
:107FB000C00084FD01C0A8958091C6000895E0E648
:107FC000F0E098E1908380830895EDDF803219F02E
:107FD00088E0F5DFFFCF84E1DECF1F93182FE3DFCA
:107FE0001150E9F7F2DF1F91089580E0E8DFEE27F6
:047FF000FF270994CA
:027FFE00040479
:0400000300007E007B
:00000001FF
